{
  "contractName": "Crowdfunding",
  "abi": [
    {
      "inputs": [],
      "stateMutability": "nonpayable",
      "type": "constructor"
    },
    {
      "inputs": [
        {
          "internalType": "uint256",
          "name": "",
          "type": "uint256"
        }
      ],
      "name": "campaigns",
      "outputs": [
        {
          "internalType": "address payable",
          "name": "creator",
          "type": "address"
        },
        {
          "internalType": "string",
          "name": "title",
          "type": "string"
        },
        {
          "internalType": "string",
          "name": "description",
          "type": "string"
        },
        {
          "internalType": "uint256",
          "name": "goal",
          "type": "uint256"
        },
        {
          "internalType": "uint256",
          "name": "deadline",
          "type": "uint256"
        },
        {
          "internalType": "string",
          "name": "image",
          "type": "string"
        },
        {
          "internalType": "uint256",
          "name": "raised",
          "type": "uint256"
        },
        {
          "internalType": "bool",
          "name": "complete",
          "type": "bool"
        }
      ],
      "stateMutability": "view",
      "type": "function",
      "constant": true
    },
    {
      "inputs": [],
      "name": "numCampaigns",
      "outputs": [
        {
          "internalType": "uint256",
          "name": "",
          "type": "uint256"
        }
      ],
      "stateMutability": "view",
      "type": "function",
      "constant": true
    },
    {
      "inputs": [],
      "name": "sayHello",
      "outputs": [
        {
          "internalType": "string",
          "name": "",
          "type": "string"
        }
      ],
      "stateMutability": "pure",
      "type": "function",
      "constant": true
    },
    {
      "inputs": [
        {
          "internalType": "string",
          "name": "_title",
          "type": "string"
        },
        {
          "internalType": "string",
          "name": "_description",
          "type": "string"
        },
        {
          "internalType": "uint256",
          "name": "_goal",
          "type": "uint256"
        },
        {
          "internalType": "uint256",
          "name": "_deadline",
          "type": "uint256"
        },
        {
          "internalType": "string",
          "name": "_image",
          "type": "string"
        }
      ],
      "name": "createCampaign",
      "outputs": [
        {
          "internalType": "uint256",
          "name": "",
          "type": "uint256"
        },
        {
          "internalType": "address",
          "name": "",
          "type": "address"
        },
        {
          "internalType": "string",
          "name": "",
          "type": "string"
        },
        {
          "internalType": "string",
          "name": "",
          "type": "string"
        },
        {
          "internalType": "uint256",
          "name": "",
          "type": "uint256"
        },
        {
          "internalType": "uint256",
          "name": "",
          "type": "uint256"
        },
        {
          "internalType": "string",
          "name": "",
          "type": "string"
        },
        {
          "internalType": "uint256",
          "name": "",
          "type": "uint256"
        },
        {
          "internalType": "bool",
          "name": "",
          "type": "bool"
        }
      ],
      "stateMutability": "nonpayable",
      "type": "function"
    },
    {
      "inputs": [
        {
          "internalType": "uint256",
          "name": "_campaignIndex",
          "type": "uint256"
        }
      ],
      "name": "contribute",
      "outputs": [],
      "stateMutability": "payable",
      "type": "function",
      "payable": true
    },
    {
      "inputs": [
        {
          "internalType": "uint256",
          "name": "_campaignIndex",
          "type": "uint256"
        }
      ],
      "name": "getContribute",
      "outputs": [
        {
          "internalType": "address[]",
          "name": "",
          "type": "address[]"
        },
        {
          "internalType": "uint256[]",
          "name": "",
          "type": "uint256[]"
        }
      ],
      "stateMutability": "view",
      "type": "function",
      "constant": true
    },
    {
      "inputs": [],
      "name": "getCampaigns",
      "outputs": [
        {
          "internalType": "address[]",
          "name": "",
          "type": "address[]"
        },
        {
          "internalType": "string[]",
          "name": "",
          "type": "string[]"
        },
        {
          "internalType": "string[]",
          "name": "",
          "type": "string[]"
        },
        {
          "internalType": "uint256[]",
          "name": "",
          "type": "uint256[]"
        },
        {
          "internalType": "uint256[]",
          "name": "",
          "type": "uint256[]"
        },
        {
          "internalType": "string[]",
          "name": "",
          "type": "string[]"
        },
        {
          "internalType": "uint256[]",
          "name": "",
          "type": "uint256[]"
        },
        {
          "internalType": "bool[]",
          "name": "",
          "type": "bool[]"
        }
      ],
      "stateMutability": "view",
      "type": "function",
      "constant": true
    }
  ],
  "bytecode": "0x608060405234801561001057600080fd5b50336000806101000a81548173ffffffffffffffffffffffffffffffffffffffff021916908373ffffffffffffffffffffffffffffffffffffffff160217905550611ffd806100606000396000f3fe6080604052600436106100705760003560e01c8063c1cbbca71161004e578063c1cbbca714610116578063d4e3dd6f14610132578063dd4bee2014610177578063ef5fb05b146101b557610070565b8063141961bc146100755780632c0f7b6f146100b9578063a6b03633146100e4575b600080fd5b34801561008157600080fd5b5061009c6004803603810190610097919061118b565b6101e0565b6040516100b09897969594939291906112b3565b60405180910390f35b3480156100c557600080fd5b506100ce6103ed565b6040516100db9190611346565b60405180910390f35b3480156100f057600080fd5b506100f96103f3565b60405161010d9897969594939291906116b9565b60405180910390f35b610130600480360381019061012b919061118b565b6109ff565b005b34801561013e57600080fd5b50610159600480360381019061015491906118a4565b610c93565b60405161016e99989796959493929190611982565b60405180910390f35b34801561018357600080fd5b5061019e6004803603810190610199919061118b565b610ff2565b6040516101ac929190611a24565b60405180910390f35b3480156101c157600080fd5b506101ca611104565b6040516101d79190611a5b565b60405180910390f35b60026020528060005260406000206000915090508060000160009054906101000a900473ffffffffffffffffffffffffffffffffffffffff169080600101805461022990611aac565b80601f016020809104026020016040519081016040528092919081815260200182805461025590611aac565b80156102a25780601f10610277576101008083540402835291602001916102a2565b820191906000526020600020905b81548152906001019060200180831161028557829003601f168201915b5050505050908060020180546102b790611aac565b80601f01602080910402602001604051908101604052809291908181526020018280546102e390611aac565b80156103305780601f1061030557610100808354040283529160200191610330565b820191906000526020600020905b81548152906001019060200180831161031357829003601f168201915b50505050509080600301549080600401549080600501805461035190611aac565b80601f016020809104026020016040519081016040528092919081815260200182805461037d90611aac565b80156103ca5780601f1061039f576101008083540402835291602001916103ca565b820191906000526020600020905b8154815290600101906020018083116103ad57829003601f168201915b50505050509080600601549080600a0160009054906101000a900460ff16905088565b60015481565b606080606080606080606080600060015467ffffffffffffffff81111561041d5761041c611779565b5b60405190808252806020026020018201604052801561044b5781602001602082028036833780820191505090505b509050600060015467ffffffffffffffff81111561046c5761046b611779565b5b60405190808252806020026020018201604052801561049f57816020015b606081526020019060019003908161048a5790505b509050600060015467ffffffffffffffff8111156104c0576104bf611779565b5b6040519080825280602002602001820160405280156104f357816020015b60608152602001906001900390816104de5790505b509050600060015467ffffffffffffffff81111561051457610513611779565b5b6040519080825280602002602001820160405280156105425781602001602082028036833780820191505090505b509050600060015467ffffffffffffffff81111561056357610562611779565b5b6040519080825280602002602001820160405280156105915781602001602082028036833780820191505090505b509050600060015467ffffffffffffffff8111156105b2576105b1611779565b5b6040519080825280602002602001820160405280156105e557816020015b60608152602001906001900390816105d05790505b509050600060015467ffffffffffffffff81111561060657610605611779565b5b6040519080825280602002602001820160405280156106345781602001602082028036833780820191505090505b509050600060015467ffffffffffffffff81111561065557610654611779565b5b6040519080825280602002602001820160405280156106835781602001602082028036833780820191505090505b50905060005b6001548110156109d45760006002600083815260200190815260200160002090508060000160009054906101000a900473ffffffffffffffffffffffffffffffffffffffff168a83815181106106e2576106e1611add565b5b602002602001019073ffffffffffffffffffffffffffffffffffffffff16908173ffffffffffffffffffffffffffffffffffffffff168152505080600101805461072b90611aac565b80601f016020809104026020016040519081016040528092919081815260200182805461075790611aac565b80156107a45780601f10610779576101008083540402835291602001916107a4565b820191906000526020600020905b81548152906001019060200180831161078757829003601f168201915b50505050508983815181106107bc576107bb611add565b5b60200260200101819052508060020180546107d690611aac565b80601f016020809104026020016040519081016040528092919081815260200182805461080290611aac565b801561084f5780601f106108245761010080835404028352916020019161084f565b820191906000526020600020905b81548152906001019060200180831161083257829003601f168201915b505050505088838151811061086757610866611add565b5b6020026020010181905250806003015487838151811061088a57610889611add565b5b60200260200101818152505080600401548683815181106108ae576108ad611add565b5b6020026020010181815250508060050180546108c990611aac565b80601f01602080910402602001604051908101604052809291908181526020018280546108f590611aac565b80156109425780601f1061091757610100808354040283529160200191610942565b820191906000526020600020905b81548152906001019060200180831161092557829003601f168201915b505050505085838151811061095a57610959611add565b5b6020026020010181905250806006015484838151811061097d5761097c611add565b5b60200260200101818152505080600a0160009054906101000a900460ff168383815181106109ae576109ad611add565b5b6020026020010190151590811515815250505080806109cc90611b3b565b915050610689565b5087878787878787879f509f509f509f509f509f509f509f5050505050505050509091929394959697565b600060026000838152602001908152602001600020905080600a0160009054906101000a900460ff1615610a68576040517f08c379a0000000000000000000000000000000000000000000000000000000008152600401610a5f90611bcf565b60405180910390fd5b80600801339080600181540180825580915050600190039060005260206000200160009091909190916101000a81548173ffffffffffffffffffffffffffffffffffffffff021916908373ffffffffffffffffffffffffffffffffffffffff16021790555080600901349080600181540180825580915050600190039060005260206000200160009091909190915055348160070160003373ffffffffffffffffffffffffffffffffffffffff1673ffffffffffffffffffffffffffffffffffffffff1681526020019081526020016000206000828254610b499190611bef565b9250508190555034816006016000828254610b649190611bef565b925050819055508060030154816006015410610c8f57600181600a0160006101000a81548160ff021916908315150217905550600060148260060154610baa9190611c52565b90508160000160009054906101000a900473ffffffffffffffffffffffffffffffffffffffff1673ffffffffffffffffffffffffffffffffffffffff166108fc828460060154610bfa9190611c83565b9081150290604051600060405180830381858888f19350505050158015610c25573d6000803e3d6000fd5b5060008054906101000a900473ffffffffffffffffffffffffffffffffffffffff1673ffffffffffffffffffffffffffffffffffffffff166108fc829081150290604051600060405180830381858888f19350505050158015610c8c573d6000803e3d6000fd5b50505b5050565b60008060608060008060606000806000600260006001548152602001908152602001600020905042816004015410610d00576040517f08c379a0000000000000000000000000000000000000000000000000000000008152600401610cf790611d29565b60405180910390fd5b338160000160006101000a81548173ffffffffffffffffffffffffffffffffffffffff021916908373ffffffffffffffffffffffffffffffffffffffff1602179055508e816001019081610d549190611ef5565b508d816002019081610d669190611ef5565b508c81600301819055508b81600401819055508a816005019081610d8a9190611ef5565b5060008160060181905550600081600a0160006101000a81548160ff02191690831515021790555060016000815480929190610dc590611b3b565b919050555060018054610dd89190611c83565b8160000160009054906101000a900473ffffffffffffffffffffffffffffffffffffffff1682600101836002018460030154856004015486600501876006015488600a0160009054906101000a900460ff16868054610e3690611aac565b80601f0160208091040260200160405190810160405280929190818152602001828054610e6290611aac565b8015610eaf5780601f10610e8457610100808354040283529160200191610eaf565b820191906000526020600020905b815481529060010190602001808311610e9257829003601f168201915b50505050509650858054610ec290611aac565b80601f0160208091040260200160405190810160405280929190818152602001828054610eee90611aac565b8015610f3b5780601f10610f1057610100808354040283529160200191610f3b565b820191906000526020600020905b815481529060010190602001808311610f1e57829003601f168201915b50505050509550828054610f4e90611aac565b80601f0160208091040260200160405190810160405280929190818152602001828054610f7a90611aac565b8015610fc75780601f10610f9c57610100808354040283529160200191610fc7565b820191906000526020600020905b815481529060010190602001808311610faa57829003601f168201915b5050505050925099509950995099509950995099509950995050959b50959b50959b92985095509550565b6060806002600084815260200190815260200160002060080160026000858152602001908152602001600020600901818054806020026020016040519081016040528092919081815260200182805480156110a257602002820191906000526020600020905b8160009054906101000a900473ffffffffffffffffffffffffffffffffffffffff1673ffffffffffffffffffffffffffffffffffffffff1681526020019060010190808311611058575b50505050509150808054806020026020016040519081016040528092919081815260200182805480156110f457602002820191906000526020600020905b8154815260200190600101908083116110e0575b5050505050905091509150915091565b60606040518060400160405280600d81526020017f48656c6c6f2c20576f726c642100000000000000000000000000000000000000815250905090565b6000604051905090565b600080fd5b600080fd5b6000819050919050565b61116881611155565b811461117357600080fd5b50565b6000813590506111858161115f565b92915050565b6000602082840312156111a1576111a061114b565b5b60006111af84828501611176565b91505092915050565b600073ffffffffffffffffffffffffffffffffffffffff82169050919050565b60006111e3826111b8565b9050919050565b6111f3816111d8565b82525050565b600081519050919050565b600082825260208201905092915050565b60005b83811015611233578082015181840152602081019050611218565b60008484015250505050565b6000601f19601f8301169050919050565b600061125b826111f9565b6112658185611204565b9350611275818560208601611215565b61127e8161123f565b840191505092915050565b61129281611155565b82525050565b60008115159050919050565b6112ad81611298565b82525050565b6000610100820190506112c9600083018b6111ea565b81810360208301526112db818a611250565b905081810360408301526112ef8189611250565b90506112fe6060830188611289565b61130b6080830187611289565b81810360a083015261131d8186611250565b905061132c60c0830185611289565b61133960e08301846112a4565b9998505050505050505050565b600060208201905061135b6000830184611289565b92915050565b600081519050919050565b600082825260208201905092915050565b6000819050602082019050919050565b6000611398826111b8565b9050919050565b6113a88161138d565b82525050565b60006113ba838361139f565b60208301905092915050565b6000602082019050919050565b60006113de82611361565b6113e8818561136c565b93506113f38361137d565b8060005b8381101561142457815161140b88826113ae565b9750611416836113c6565b9250506001810190506113f7565b5085935050505092915050565b600081519050919050565b600082825260208201905092915050565b6000819050602082019050919050565b600082825260208201905092915050565b6000611479826111f9565b611483818561145d565b9350611493818560208601611215565b61149c8161123f565b840191505092915050565b60006114b3838361146e565b905092915050565b6000602082019050919050565b60006114d382611431565b6114dd818561143c565b9350836020820285016114ef8561144d565b8060005b8581101561152b578484038952815161150c85826114a7565b9450611517836114bb565b925060208a019950506001810190506114f3565b50829750879550505050505092915050565b600081519050919050565b600082825260208201905092915050565b6000819050602082019050919050565b61157281611155565b82525050565b60006115848383611569565b60208301905092915050565b6000602082019050919050565b60006115a88261153d565b6115b28185611548565b93506115bd83611559565b8060005b838110156115ee5781516115d58882611578565b97506115e083611590565b9250506001810190506115c1565b5085935050505092915050565b600081519050919050565b600082825260208201905092915050565b6000819050602082019050919050565b61163081611298565b82525050565b60006116428383611627565b60208301905092915050565b6000602082019050919050565b6000611666826115fb565b6116708185611606565b935061167b83611617565b8060005b838110156116ac5781516116938882611636565b975061169e8361164e565b92505060018101905061167f565b5085935050505092915050565b60006101008201905081810360008301526116d4818b6113d3565b905081810360208301526116e8818a6114c8565b905081810360408301526116fc81896114c8565b90508181036060830152611710818861159d565b90508181036080830152611724818761159d565b905081810360a083015261173881866114c8565b905081810360c083015261174c818561159d565b905081810360e0830152611760818461165b565b90509998505050505050505050565b600080fd5b600080fd5b7f4e487b7100000000000000000000000000000000000000000000000000000000600052604160045260246000fd5b6117b18261123f565b810181811067ffffffffffffffff821117156117d0576117cf611779565b5b80604052505050565b60006117e3611141565b90506117ef82826117a8565b919050565b600067ffffffffffffffff82111561180f5761180e611779565b5b6118188261123f565b9050602081019050919050565b82818337600083830152505050565b6000611847611842846117f4565b6117d9565b90508281526020810184848401111561186357611862611774565b5b61186e848285611825565b509392505050565b600082601f83011261188b5761188a61176f565b5b813561189b848260208601611834565b91505092915050565b600080600080600060a086880312156118c0576118bf61114b565b5b600086013567ffffffffffffffff8111156118de576118dd611150565b5b6118ea88828901611876565b955050602086013567ffffffffffffffff81111561190b5761190a611150565b5b61191788828901611876565b945050604061192888828901611176565b935050606061193988828901611176565b925050608086013567ffffffffffffffff81111561195a57611959611150565b5b61196688828901611876565b9150509295509295909350565b61197c8161138d565b82525050565b600061012082019050611998600083018c611289565b6119a5602083018b611973565b81810360408301526119b7818a611250565b905081810360608301526119cb8189611250565b90506119da6080830188611289565b6119e760a0830187611289565b81810360c08301526119f98186611250565b9050611a0860e0830185611289565b611a166101008301846112a4565b9a9950505050505050505050565b60006040820190508181036000830152611a3e81856113d3565b90508181036020830152611a52818461159d565b90509392505050565b60006020820190508181036000830152611a758184611250565b905092915050565b7f4e487b7100000000000000000000000000000000000000000000000000000000600052602260045260246000fd5b60006002820490506001821680611ac457607f821691505b602082108103611ad757611ad6611a7d565b5b50919050565b7f4e487b7100000000000000000000000000000000000000000000000000000000600052603260045260246000fd5b7f4e487b7100000000000000000000000000000000000000000000000000000000600052601160045260246000fd5b6000611b4682611155565b91507fffffffffffffffffffffffffffffffffffffffffffffffffffffffffffffffff8203611b7857611b77611b0c565b5b600182019050919050565b7f43616d706169676e20616c726561647920636f6d706c6574652e000000000000600082015250565b6000611bb9601a83611204565b9150611bc482611b83565b602082019050919050565b60006020820190508181036000830152611be881611bac565b9050919050565b6000611bfa82611155565b9150611c0583611155565b9250828201905080821115611c1d57611c1c611b0c565b5b92915050565b7f4e487b7100000000000000000000000000000000000000000000000000000000600052601260045260246000fd5b6000611c5d82611155565b9150611c6883611155565b925082611c7857611c77611c23565b5b828204905092915050565b6000611c8e82611155565b9150611c9983611155565b9250828203905081811115611cb157611cb0611b0c565b5b92915050565b7f54686520646561646c696e206d7573742062652061206461746520696e20746860008201527f65206675747572652e0000000000000000000000000000000000000000000000602082015250565b6000611d13602983611204565b9150611d1e82611cb7565b604082019050919050565b60006020820190508181036000830152611d4281611d06565b9050919050565b60008190508160005260206000209050919050565b60006020601f8301049050919050565b600082821b905092915050565b600060088302611dab7fffffffffffffffffffffffffffffffffffffffffffffffffffffffffffffffff82611d6e565b611db58683611d6e565b95508019841693508086168417925050509392505050565b6000819050919050565b6000611df2611ded611de884611155565b611dcd565b611155565b9050919050565b6000819050919050565b611e0c83611dd7565b611e20611e1882611df9565b848454611d7b565b825550505050565b600090565b611e35611e28565b611e40818484611e03565b505050565b5b81811015611e6457611e59600082611e2d565b600181019050611e46565b5050565b601f821115611ea957611e7a81611d49565b611e8384611d5e565b81016020851015611e92578190505b611ea6611e9e85611d5e565b830182611e45565b50505b505050565b600082821c905092915050565b6000611ecc60001984600802611eae565b1980831691505092915050565b6000611ee58383611ebb565b9150826002028217905092915050565b611efe826111f9565b67ffffffffffffffff811115611f1757611f16611779565b5b611f218254611aac565b611f2c828285611e68565b600060209050601f831160018114611f5f5760008415611f4d578287015190505b611f578582611ed9565b865550611fbf565b601f198416611f6d86611d49565b60005b82811015611f9557848901518255600182019150602085019450602081019050611f70565b86831015611fb25784890151611fae601f891682611ebb565b8355505b6001600288020188555050505b50505050505056fea264697066735822122015dccf2467bd34bbfdaa3b69a91d80a7f4a9b50b97e60b47db1bd918d686409b64736f6c63430008110033",
  "immutableReferences": {},
  "source": "// SPDX-License-Identifier: MIT\r\npragma solidity ^0.8.0;\r\n\r\n\r\ncontract Crowdfunding {\r\n    struct Campaign {\r\n        address payable creator;\r\n        string title;\r\n        string description;\r\n        uint goal;\r\n        uint deadline;\r\n        string image;\r\n        uint raised;\r\n        mapping(address => uint) contributions;\r\n        address[] donators;\r\n        uint[] donations;\r\n        bool complete;\r\n\r\n    }\r\n\r\n     address payable owner;\r\n\r\n    constructor (){\r\n      owner = payable(msg.sender);\r\n\r\n    }\r\n    \r\n    uint public numCampaigns;\r\n\r\n    mapping (uint => Campaign) public campaigns;\r\n    \r\n    function sayHello() public pure returns (string memory) {\r\n    return \"Hello, World!\";\r\n    }\r\n\r\n    function createCampaign(string memory _title, string memory _description, uint _goal,\r\n     uint _deadline, string memory _image) public returns(uint, address , string memory, string memory,uint ,uint ,string memory,uint,bool ) {\r\n        Campaign storage c = campaigns[numCampaigns];\r\n\r\n        require(c.deadline < block.timestamp, \"The deadlin must be a date in the future.\");\r\n\r\n        c.creator = payable(msg.sender);\r\n        c.title = _title;\r\n        c.description = _description;\r\n        c.goal = _goal;\r\n        c.deadline = _deadline;\r\n        c.image = _image;\r\n        c.raised = 0 ;\r\n        c.complete = false;\r\n\r\n        numCampaigns++;\r\n\r\n        return (numCampaigns -1,c.creator,c.title,c.description,c.goal,c.deadline,c.image,c.raised,c.complete);\r\n        }\r\n    \r\n    \r\n\r\n    function contribute(uint _campaignIndex) public payable {\r\n        Campaign storage campaign = campaigns[_campaignIndex];\r\n        require(!campaign.complete, \"Campaign already complete.\");\r\n        campaign.donators.push(msg.sender);\r\n        campaign.donations.push(msg.value);\r\n        campaign.contributions[msg.sender] += msg.value;\r\n        campaign.raised += msg.value;\r\n        if (campaign.raised >= campaign.goal) {\r\n            campaign.complete = true;\r\n            uint ownerTax = campaign.raised / 20; // 5% tax is 1/20th of the contribution\r\n            campaign.creator.transfer(campaign.raised - ownerTax); // transfer contribution minus the owner tax\r\n            owner.transfer(ownerTax); // transfer the owner tax to the owner\r\n        }\r\n    }\r\n\r\n    function getContribute(uint _campaignIndex) view public returns (address[] memory, uint[] memory){\r\n        return (campaigns[_campaignIndex].donators, campaigns[_campaignIndex].donations);\r\n    }\r\n\r\n    // function getCampaigns() public view returns (Campaign[] memory){\r\n    //     Campaign[] memory allCampaigns = new Campaign[](numCampaigns);\r\n\r\n    //     for (uint i = 0; i < numCampaigns; i++){\r\n    //         Campaign storage _campaign = campaigns[i];\r\n    //         allCampaigns[i] = _campaign;\r\n    //     }\r\n    //         return allCampaigns;\r\n    //     }\r\n    \r\n    function getCampaigns() view public returns (address[] memory, string[] memory, string[] memory, uint[] memory, uint[] memory, string[] memory, uint[] memory, bool[] memory) {\r\n        address[] memory creators = new address[](numCampaigns);\r\n        string[] memory titles = new string[](numCampaigns);\r\n        string[] memory descriptions = new string[](numCampaigns);\r\n        uint[] memory goals = new uint[](numCampaigns);\r\n        uint[] memory deadlines = new uint[](numCampaigns);\r\n        string[] memory images = new string[](numCampaigns);\r\n        uint[] memory raisedAmounts = new uint[](numCampaigns);\r\n        bool[] memory isComplete = new bool[](numCampaigns);\r\n        \r\n        for (uint i = 0; i < numCampaigns; i++) {\r\n            Campaign storage campaign = campaigns[i];\r\n            creators[i] = campaign.creator;\r\n            titles[i] = campaign.title;\r\n            descriptions[i] = campaign.description;\r\n            goals[i] = campaign.goal;\r\n            deadlines[i] = campaign.deadline;\r\n            images[i] = campaign.image;\r\n            raisedAmounts[i] = campaign.raised;\r\n            isComplete[i] = campaign.complete;\r\n        }\r\n        \r\n        return (creators, titles, descriptions, goals, deadlines, images, raisedAmounts, isComplete);\r\n    }\r\n\r\n\r\n    // function withdraw(uint _campaignIndex) public {\r\n    //     Campaign storage campaign = campaigns[_campaignIndex];\r\n    //     require(campaign.complete == false, \"Campaign already complete.\");\r\n    //     //uint amount = campaign.contributions[msg.sender];\r\n    //     require(amount > 0, \"No contributions found.\");\r\n    //     campaign.contributions[msg.sender] = 0;\r\n    //     campaign.raised -= amount;\r\n    //     payable(msg.sender).transfer(amount);\r\n    // }\r\n}\r\n\r\n//  \r\n//truffle migrate --reset \r\n//     \r\n//truffle console\r\n//  \r\n//const instance = await Crowdfunding.deployed()\r\n\r\n//instance.createCampaign(\"A\",\"aa\",\"50\",\"6\",\"aaaa\", {from: accounts[0]})\r\n//instance.createCampaign(\"B\",\"bb\",\"40\",\"5\",\"bbbb\", {from: accounts[1]})\r\n//instance.getCampaigns()\r\n\r\n//instance.contribute(\"1\",{value:\"500000000000000000\", from: accounts[1]})\r\n//instance.getContribute(\"1\")\r\n\r\n\r\n\r\n\r\n\r\n\r\n\r\n",
  "sourcePath": "C:\\Users\\roile\\Desktop\\React Project\\New crowdfunding\\contracts\\crowdfunding.sol",
  "compiler": {
    "name": "solc",
    "version": "0.8.17+commit.8df45f5f.Emscripten.clang"
  },
  "schemaVersion": "3.4.11",
  "updatedAt": "2023-04-02T19:42:08.760Z",
  "networkType": "ethereum",
  "devdoc": {
    "kind": "dev",
    "methods": {},
    "version": 1
  },
  "userdoc": {
    "kind": "user",
    "methods": {},
    "version": 1
  }
}