{
  "contractName": "TestCrowdfunding",
  "abi": [
    {
      "inputs": [],
      "stateMutability": "nonpayable",
      "type": "constructor"
    },
    {
      "inputs": [],
      "name": "crowdfunding",
      "outputs": [
        {
          "internalType": "contract Crowdfunding",
          "name": "",
          "type": "address"
        }
      ],
      "stateMutability": "view",
      "type": "function"
    }
  ],
  "bytecode": "0x608060405234801561001057600080fd5b5060405161001d90610139565b604051809103906000f080158015610039573d6000803e3d6000fd5b506000806101000a81548173ffffffffffffffffffffffffffffffffffffffff021916908373ffffffffffffffffffffffffffffffffffffffff16021790555060008054906101000a900473ffffffffffffffffffffffffffffffffffffffff1673ffffffffffffffffffffffffffffffffffffffff1663d4e3dd6f6103e862093a80426100c7919061017f565b6040518363ffffffff1660e01b81526004016100e49291906102fc565b6000604051808303816000875af1158015610103573d6000803e3d6000fd5b505050506040513d6000823e3d601f19601f8201168201806040525081019061012c919061055d565b5050505050505050610667565b611f05806107a383390190565b6000819050919050565b7f4e487b7100000000000000000000000000000000000000000000000000000000600052601160045260246000fd5b600061018a82610146565b915061019583610146565b92508282019050808211156101ad576101ac610150565b5b92915050565b600082825260208201905092915050565b7f43616d706169676e205469746c65000000000000000000000000000000000000600082015250565b60006101fa600e836101b3565b9150610205826101c4565b602082019050919050565b7f43616d706169676e204465736372697074696f6e000000000000000000000000600082015250565b60006102466014836101b3565b915061025182610210565b602082019050919050565b6000819050919050565b6000819050919050565b600061028b6102866102818461025c565b610266565b610146565b9050919050565b61029b81610270565b82525050565b6102aa81610146565b82525050565b7f43616d706169676e20496d616765000000000000000000000000000000000000600082015250565b60006102e6600e836101b3565b91506102f1826102b0565b602082019050919050565b600060a0820190508181036000830152610315816101ed565b9050818103602083015261032881610239565b90506103376040830185610292565b61034460608301846102a1565b8181036080830152610355816102d9565b90509392505050565b6000604051905090565b600080fd5b600080fd5b61037b81610146565b811461038657600080fd5b50565b60008151905061039881610372565b92915050565b600073ffffffffffffffffffffffffffffffffffffffff82169050919050565b60006103c98261039e565b9050919050565b6103d9816103be565b81146103e457600080fd5b50565b6000815190506103f6816103d0565b92915050565b600080fd5b600080fd5b6000601f19601f8301169050919050565b7f4e487b7100000000000000000000000000000000000000000000000000000000600052604160045260246000fd5b61044f82610406565b810181811067ffffffffffffffff8211171561046e5761046d610417565b5b80604052505050565b600061048161035e565b905061048d8282610446565b919050565b600067ffffffffffffffff8211156104ad576104ac610417565b5b6104b682610406565b9050602081019050919050565b60005b838110156104e15780820151818401526020810190506104c6565b60008484015250505050565b60006105006104fb84610492565b610477565b90508281526020810184848401111561051c5761051b610401565b5b6105278482856104c3565b509392505050565b600082601f830112610544576105436103fc565b5b81516105548482602086016104ed565b91505092915050565b600080600080600080600080610100898b03121561057e5761057d610368565b5b600061058c8b828c01610389565b985050602061059d8b828c016103e7565b975050604089015167ffffffffffffffff8111156105be576105bd61036d565b5b6105ca8b828c0161052f565b965050606089015167ffffffffffffffff8111156105eb576105ea61036d565b5b6105f78b828c0161052f565b95505060806106088b828c01610389565b94505060a06106198b828c01610389565b93505060c089015167ffffffffffffffff81111561063a5761063961036d565b5b6106468b828c0161052f565b92505060e06106578b828c01610389565b9150509295985092959890939650565b61012d806106766000396000f3fe6080604052348015600f57600080fd5b506004361060285760003560e01c806356885cd814602d575b600080fd5b60336047565b604051603e919060de565b60405180910390f35b60008054906101000a900473ffffffffffffffffffffffffffffffffffffffff1681565b600073ffffffffffffffffffffffffffffffffffffffff82169050919050565b6000819050919050565b600060aa60a660a284606b565b608b565b606b565b9050919050565b600060ba826095565b9050919050565b600060ca8260b1565b9050919050565b60d88160c1565b82525050565b600060208201905060f1600083018460d1565b9291505056fea26469706673582212202c7cc8ff28a479a5203e60726922a7f9d36631d8c0b7f98a9d15470b9ccb80e364736f6c63430008110033608060405234801561001057600080fd5b50611ee5806100206000396000f3fe6080604052600436106100705760003560e01c8063c1cbbca71161004e578063c1cbbca714610116578063d4e3dd6f14610132578063dd4bee2014610176578063ef5fb05b146101b457610070565b8063141961bc146100755780632c0f7b6f146100b9578063a6b03633146100e4575b600080fd5b34801561008157600080fd5b5061009c600480360381019061009791906110e2565b6101df565b6040516100b098979695949392919061120a565b60405180910390f35b3480156100c557600080fd5b506100ce6103ec565b6040516100db919061129d565b60405180910390f35b3480156100f057600080fd5b506100f96103f2565b60405161010d989796959493929190611610565b60405180910390f35b610130600480360381019061012b91906110e2565b6109f6565b005b34801561013e57600080fd5b50610159600480360381019061015491906117fb565b610c02565b60405161016d9897969594939291906118d9565b60405180910390f35b34801561018257600080fd5b5061019d600480360381019061019891906110e2565b610f49565b6040516101ab92919061196c565b60405180910390f35b3480156101c057600080fd5b506101c961105b565b6040516101d691906119a3565b60405180910390f35b60016020528060005260406000206000915090508060000160009054906101000a900473ffffffffffffffffffffffffffffffffffffffff1690806001018054610228906119f4565b80601f0160208091040260200160405190810160405280929190818152602001828054610254906119f4565b80156102a15780601f10610276576101008083540402835291602001916102a1565b820191906000526020600020905b81548152906001019060200180831161028457829003601f168201915b5050505050908060020180546102b6906119f4565b80601f01602080910402602001604051908101604052809291908181526020018280546102e2906119f4565b801561032f5780601f106103045761010080835404028352916020019161032f565b820191906000526020600020905b81548152906001019060200180831161031257829003601f168201915b505050505090806003015490806004015490806005018054610350906119f4565b80601f016020809104026020016040519081016040528092919081815260200182805461037c906119f4565b80156103c95780601f1061039e576101008083540402835291602001916103c9565b820191906000526020600020905b8154815290600101906020018083116103ac57829003601f168201915b50505050509080600601549080600a0160009054906101000a900460ff16905088565b60005481565b6060806060806060806060806000805467ffffffffffffffff81111561041b5761041a6116d0565b5b6040519080825280602002602001820160405280156104495781602001602082028036833780820191505090505b5090506000805467ffffffffffffffff811115610469576104686116d0565b5b60405190808252806020026020018201604052801561049c57816020015b60608152602001906001900390816104875790505b5090506000805467ffffffffffffffff8111156104bc576104bb6116d0565b5b6040519080825280602002602001820160405280156104ef57816020015b60608152602001906001900390816104da5790505b5090506000805467ffffffffffffffff81111561050f5761050e6116d0565b5b60405190808252806020026020018201604052801561053d5781602001602082028036833780820191505090505b5090506000805467ffffffffffffffff81111561055d5761055c6116d0565b5b60405190808252806020026020018201604052801561058b5781602001602082028036833780820191505090505b5090506000805467ffffffffffffffff8111156105ab576105aa6116d0565b5b6040519080825280602002602001820160405280156105de57816020015b60608152602001906001900390816105c95790505b5090506000805467ffffffffffffffff8111156105fe576105fd6116d0565b5b60405190808252806020026020018201604052801561062c5781602001602082028036833780820191505090505b5090506000805467ffffffffffffffff81111561064c5761064b6116d0565b5b60405190808252806020026020018201604052801561067a5781602001602082028036833780820191505090505b50905060005b6000548110156109cb5760006001600083815260200190815260200160002090508060000160009054906101000a900473ffffffffffffffffffffffffffffffffffffffff168a83815181106106d9576106d8611a25565b5b602002602001019073ffffffffffffffffffffffffffffffffffffffff16908173ffffffffffffffffffffffffffffffffffffffff1681525050806001018054610722906119f4565b80601f016020809104026020016040519081016040528092919081815260200182805461074e906119f4565b801561079b5780601f106107705761010080835404028352916020019161079b565b820191906000526020600020905b81548152906001019060200180831161077e57829003601f168201915b50505050508983815181106107b3576107b2611a25565b5b60200260200101819052508060020180546107cd906119f4565b80601f01602080910402602001604051908101604052809291908181526020018280546107f9906119f4565b80156108465780601f1061081b57610100808354040283529160200191610846565b820191906000526020600020905b81548152906001019060200180831161082957829003601f168201915b505050505088838151811061085e5761085d611a25565b5b6020026020010181905250806003015487838151811061088157610880611a25565b5b60200260200101818152505080600401548683815181106108a5576108a4611a25565b5b6020026020010181815250508060050180546108c0906119f4565b80601f01602080910402602001604051908101604052809291908181526020018280546108ec906119f4565b80156109395780601f1061090e57610100808354040283529160200191610939565b820191906000526020600020905b81548152906001019060200180831161091c57829003601f168201915b505050505085838151811061095157610950611a25565b5b6020026020010181905250806006015484838151811061097457610973611a25565b5b60200260200101818152505080600a0160009054906101000a900460ff168383815181106109a5576109a4611a25565b5b6020026020010190151590811515815250505080806109c390611a83565b915050610680565b5087878787878787879f509f509f509f509f509f509f509f5050505050505050509091929394959697565b600060016000838152602001908152602001600020905080600a0160009054906101000a900460ff1615610a5f576040517f08c379a0000000000000000000000000000000000000000000000000000000008152600401610a5690611b17565b60405180910390fd5b80600801339080600181540180825580915050600190039060005260206000200160009091909190916101000a81548173ffffffffffffffffffffffffffffffffffffffff021916908373ffffffffffffffffffffffffffffffffffffffff16021790555080600901349080600181540180825580915050600190039060005260206000200160009091909190915055348160070160003373ffffffffffffffffffffffffffffffffffffffff1673ffffffffffffffffffffffffffffffffffffffff1681526020019081526020016000206000828254610b409190611b37565b9250508190555034816006016000828254610b5b9190611b37565b925050819055508060030154816006015410610bfe57600181600a0160006101000a81548160ff0219169083151502179055508060000160009054906101000a900473ffffffffffffffffffffffffffffffffffffffff1673ffffffffffffffffffffffffffffffffffffffff166108fc82600601549081150290604051600060405180830381858888f19350505050158015610bfc573d6000803e3d6000fd5b505b5050565b60008060608060008060606000806001600080548152602001908152602001600020905042816004015410610c6c576040517f08c379a0000000000000000000000000000000000000000000000000000000008152600401610c6390611bdd565b60405180910390fd5b338160000160006101000a81548173ffffffffffffffffffffffffffffffffffffffff021916908373ffffffffffffffffffffffffffffffffffffffff1602179055508d816001019081610cc09190611da9565b508c816002019081610cd29190611da9565b508b81600301819055508a816004018190555089816005019081610cf69190611da9565b5060008160060181905550600081600a0160006101000a81548160ff021916908315150217905550600080815480929190610d3090611a83565b91905055506001600054610d449190611e7b565b8160000160009054906101000a900473ffffffffffffffffffffffffffffffffffffffff16826001018360020184600301548560040154866005018760060154858054610d90906119f4565b80601f0160208091040260200160405190810160405280929190818152602001828054610dbc906119f4565b8015610e095780601f10610dde57610100808354040283529160200191610e09565b820191906000526020600020905b815481529060010190602001808311610dec57829003601f168201915b50505050509550848054610e1c906119f4565b80601f0160208091040260200160405190810160405280929190818152602001828054610e48906119f4565b8015610e955780601f10610e6a57610100808354040283529160200191610e95565b820191906000526020600020905b815481529060010190602001808311610e7857829003601f168201915b50505050509450818054610ea8906119f4565b80601f0160208091040260200160405190810160405280929190818152602001828054610ed4906119f4565b8015610f215780601f10610ef657610100808354040283529160200191610f21565b820191906000526020600020905b815481529060010190602001808311610f0457829003601f168201915b505050505091509850985098509850985098509850985050959b50959b939950955095509550565b606080600160008481526020019081526020016000206008016001600085815260200190815260200160002060090181805480602002602001604051908101604052809291908181526020018280548015610ff957602002820191906000526020600020905b8160009054906101000a900473ffffffffffffffffffffffffffffffffffffffff1673ffffffffffffffffffffffffffffffffffffffff1681526020019060010190808311610faf575b505050505091508080548060200260200160405190810160405280929190818152602001828054801561104b57602002820191906000526020600020905b815481526020019060010190808311611037575b5050505050905091509150915091565b60606040518060400160405280600d81526020017f48656c6c6f2c20576f726c642100000000000000000000000000000000000000815250905090565b6000604051905090565b600080fd5b600080fd5b6000819050919050565b6110bf816110ac565b81146110ca57600080fd5b50565b6000813590506110dc816110b6565b92915050565b6000602082840312156110f8576110f76110a2565b5b6000611106848285016110cd565b91505092915050565b600073ffffffffffffffffffffffffffffffffffffffff82169050919050565b600061113a8261110f565b9050919050565b61114a8161112f565b82525050565b600081519050919050565b600082825260208201905092915050565b60005b8381101561118a57808201518184015260208101905061116f565b60008484015250505050565b6000601f19601f8301169050919050565b60006111b282611150565b6111bc818561115b565b93506111cc81856020860161116c565b6111d581611196565b840191505092915050565b6111e9816110ac565b82525050565b60008115159050919050565b611204816111ef565b82525050565b600061010082019050611220600083018b611141565b8181036020830152611232818a6111a7565b9050818103604083015261124681896111a7565b905061125560608301886111e0565b61126260808301876111e0565b81810360a083015261127481866111a7565b905061128360c08301856111e0565b61129060e08301846111fb565b9998505050505050505050565b60006020820190506112b260008301846111e0565b92915050565b600081519050919050565b600082825260208201905092915050565b6000819050602082019050919050565b60006112ef8261110f565b9050919050565b6112ff816112e4565b82525050565b600061131183836112f6565b60208301905092915050565b6000602082019050919050565b6000611335826112b8565b61133f81856112c3565b935061134a836112d4565b8060005b8381101561137b5781516113628882611305565b975061136d8361131d565b92505060018101905061134e565b5085935050505092915050565b600081519050919050565b600082825260208201905092915050565b6000819050602082019050919050565b600082825260208201905092915050565b60006113d082611150565b6113da81856113b4565b93506113ea81856020860161116c565b6113f381611196565b840191505092915050565b600061140a83836113c5565b905092915050565b6000602082019050919050565b600061142a82611388565b6114348185611393565b935083602082028501611446856113a4565b8060005b85811015611482578484038952815161146385826113fe565b945061146e83611412565b925060208a0199505060018101905061144a565b50829750879550505050505092915050565b600081519050919050565b600082825260208201905092915050565b6000819050602082019050919050565b6114c9816110ac565b82525050565b60006114db83836114c0565b60208301905092915050565b6000602082019050919050565b60006114ff82611494565b611509818561149f565b9350611514836114b0565b8060005b8381101561154557815161152c88826114cf565b9750611537836114e7565b925050600181019050611518565b5085935050505092915050565b600081519050919050565b600082825260208201905092915050565b6000819050602082019050919050565b611587816111ef565b82525050565b6000611599838361157e565b60208301905092915050565b6000602082019050919050565b60006115bd82611552565b6115c7818561155d565b93506115d28361156e565b8060005b838110156116035781516115ea888261158d565b97506115f5836115a5565b9250506001810190506115d6565b5085935050505092915050565b600061010082019050818103600083015261162b818b61132a565b9050818103602083015261163f818a61141f565b90508181036040830152611653818961141f565b9050818103606083015261166781886114f4565b9050818103608083015261167b81876114f4565b905081810360a083015261168f818661141f565b905081810360c08301526116a381856114f4565b905081810360e08301526116b781846115b2565b90509998505050505050505050565b600080fd5b600080fd5b7f4e487b7100000000000000000000000000000000000000000000000000000000600052604160045260246000fd5b61170882611196565b810181811067ffffffffffffffff82111715611727576117266116d0565b5b80604052505050565b600061173a611098565b905061174682826116ff565b919050565b600067ffffffffffffffff821115611766576117656116d0565b5b61176f82611196565b9050602081019050919050565b82818337600083830152505050565b600061179e6117998461174b565b611730565b9050828152602081018484840111156117ba576117b96116cb565b5b6117c584828561177c565b509392505050565b600082601f8301126117e2576117e16116c6565b5b81356117f284826020860161178b565b91505092915050565b600080600080600060a08688031215611817576118166110a2565b5b600086013567ffffffffffffffff811115611835576118346110a7565b5b611841888289016117cd565b955050602086013567ffffffffffffffff811115611862576118616110a7565b5b61186e888289016117cd565b945050604061187f888289016110cd565b9350506060611890888289016110cd565b925050608086013567ffffffffffffffff8111156118b1576118b06110a7565b5b6118bd888289016117cd565b9150509295509295909350565b6118d3816112e4565b82525050565b6000610100820190506118ef600083018b6111e0565b6118fc602083018a6118ca565b818103604083015261190e81896111a7565b9050818103606083015261192281886111a7565b905061193160808301876111e0565b61193e60a08301866111e0565b81810360c083015261195081856111a7565b905061195f60e08301846111e0565b9998505050505050505050565b60006040820190508181036000830152611986818561132a565b9050818103602083015261199a81846114f4565b90509392505050565b600060208201905081810360008301526119bd81846111a7565b905092915050565b7f4e487b7100000000000000000000000000000000000000000000000000000000600052602260045260246000fd5b60006002820490506001821680611a0c57607f821691505b602082108103611a1f57611a1e6119c5565b5b50919050565b7f4e487b7100000000000000000000000000000000000000000000000000000000600052603260045260246000fd5b7f4e487b7100000000000000000000000000000000000000000000000000000000600052601160045260246000fd5b6000611a8e826110ac565b91507fffffffffffffffffffffffffffffffffffffffffffffffffffffffffffffffff8203611ac057611abf611a54565b5b600182019050919050565b7f43616d706169676e20616c726561647920636f6d706c6574652e000000000000600082015250565b6000611b01601a8361115b565b9150611b0c82611acb565b602082019050919050565b60006020820190508181036000830152611b3081611af4565b9050919050565b6000611b42826110ac565b9150611b4d836110ac565b9250828201905080821115611b6557611b64611a54565b5b92915050565b7f54686520646561646c696e206d7573742062652061206461746520696e20746860008201527f65206675747572652e0000000000000000000000000000000000000000000000602082015250565b6000611bc760298361115b565b9150611bd282611b6b565b604082019050919050565b60006020820190508181036000830152611bf681611bba565b9050919050565b60008190508160005260206000209050919050565b60006020601f8301049050919050565b600082821b905092915050565b600060088302611c5f7fffffffffffffffffffffffffffffffffffffffffffffffffffffffffffffffff82611c22565b611c698683611c22565b95508019841693508086168417925050509392505050565b6000819050919050565b6000611ca6611ca1611c9c846110ac565b611c81565b6110ac565b9050919050565b6000819050919050565b611cc083611c8b565b611cd4611ccc82611cad565b848454611c2f565b825550505050565b600090565b611ce9611cdc565b611cf4818484611cb7565b505050565b5b81811015611d1857611d0d600082611ce1565b600181019050611cfa565b5050565b601f821115611d5d57611d2e81611bfd565b611d3784611c12565b81016020851015611d46578190505b611d5a611d5285611c12565b830182611cf9565b50505b505050565b600082821c905092915050565b6000611d8060001984600802611d62565b1980831691505092915050565b6000611d998383611d6f565b9150826002028217905092915050565b611db282611150565b67ffffffffffffffff811115611dcb57611dca6116d0565b5b611dd582546119f4565b611de0828285611d1c565b600060209050601f831160018114611e135760008415611e01578287015190505b611e0b8582611d8d565b865550611e73565b601f198416611e2186611bfd565b60005b82811015611e4957848901518255600182019150602085019450602081019050611e24565b86831015611e665784890151611e62601f891682611d6f565b8355505b6001600288020188555050505b505050505050565b6000611e86826110ac565b9150611e91836110ac565b9250828203905081811115611ea957611ea8611a54565b5b9291505056fea264697066735822122007a50c476d64e9fc03f5f9cdf75374106456a6770577fefcbaee84cdaf1cbd3b64736f6c63430008110033",
  "immutableReferences": {},
  "source": "// SPDX-License-Identifier: MIT\r\npragma solidity ^0.8.0;\r\n\r\n\r\ncontract Crowdfunding {\r\n    struct Campaign {\r\n        address payable creator;\r\n        string title;\r\n        string description;\r\n        uint goal;\r\n        uint deadline;\r\n        string image;\r\n        uint raised;\r\n        mapping(address => uint) contributions;\r\n        address[] donators;\r\n        uint[] donations;\r\n        bool complete;\r\n\r\n    }\r\n    \r\n    uint public numCampaigns;\r\n\r\n    mapping (uint => Campaign) public campaigns;\r\n    \r\n    function sayHello() public pure returns (string memory) {\r\n    return \"Hello, World!\";\r\n    }\r\n\r\n    function createCampaign(string memory _title, string memory _description, uint _goal,\r\n     uint _deadline, string memory _image) public returns(uint, address , string memory, string memory,uint ,uint ,string memory,uint ) {\r\n        Campaign storage c = campaigns[numCampaigns];\r\n\r\n        require(c.deadline < block.timestamp, \"The deadlin must be a date in the future.\");\r\n\r\n        c.creator = payable(msg.sender);\r\n        c.title = _title;\r\n        c.description = _description;\r\n        c.goal = _goal;\r\n        c.deadline = _deadline;\r\n        c.image = _image;\r\n        c.raised = 0 ;\r\n        c.complete = false;\r\n\r\n        numCampaigns++;\r\n\r\n        return (numCampaigns -1,c.creator,c.title,c.description,c.goal,c.deadline,c.image,c.raised);\r\n        }\r\n    \r\n    \r\n\r\n    function contribute(uint _campaignIndex) public payable {\r\n        Campaign storage campaign = campaigns[_campaignIndex];\r\n        require(!campaign.complete, \"Campaign already complete.\");\r\n        campaign.donators.push(msg.sender);\r\n        campaign.donations.push(msg.value);\r\n        campaign.contributions[msg.sender] += msg.value;\r\n        campaign.raised += msg.value;\r\n        if (campaign.raised >= campaign.goal) {\r\n            campaign.complete = true;\r\n            campaign.creator.transfer(campaign.raised);\r\n        }\r\n    }\r\n\r\n    function getContribute(uint _campaignIndex) view public returns (address[] memory, uint[] memory){\r\n        return (campaigns[_campaignIndex].donators, campaigns[_campaignIndex].donations);\r\n    }\r\n\r\n    // function getCampaigns() public view returns (Campaign[] memory){\r\n    //     Campaign[] memory allCampaigns = new Campaign[](numCampaigns);\r\n\r\n    //     for (uint i = 0; i < numCampaigns; i++){\r\n    //         Campaign storage _campaign = campaigns[i];\r\n    //         allCampaigns[i] = _campaign;\r\n    //     }\r\n    //         return allCampaigns;\r\n    //     }\r\n    \r\n    function getCampaigns() view public returns (address[] memory, string[] memory, string[] memory, uint[] memory, uint[] memory, string[] memory, uint[] memory, bool[] memory) {\r\n        address[] memory creators = new address[](numCampaigns);\r\n        string[] memory titles = new string[](numCampaigns);\r\n        string[] memory descriptions = new string[](numCampaigns);\r\n        uint[] memory goals = new uint[](numCampaigns);\r\n        uint[] memory deadlines = new uint[](numCampaigns);\r\n        string[] memory images = new string[](numCampaigns);\r\n        uint[] memory raisedAmounts = new uint[](numCampaigns);\r\n        bool[] memory isComplete = new bool[](numCampaigns);\r\n        \r\n        for (uint i = 0; i < numCampaigns; i++) {\r\n            Campaign storage campaign = campaigns[i];\r\n            creators[i] = campaign.creator;\r\n            titles[i] = campaign.title;\r\n            descriptions[i] = campaign.description;\r\n            goals[i] = campaign.goal;\r\n            deadlines[i] = campaign.deadline;\r\n            images[i] = campaign.image;\r\n            raisedAmounts[i] = campaign.raised;\r\n            isComplete[i] = campaign.complete;\r\n        }\r\n        \r\n        return (creators, titles, descriptions, goals, deadlines, images, raisedAmounts, isComplete);\r\n    }\r\n\r\n\r\n    // function withdraw(uint _campaignIndex) public {\r\n    //     Campaign storage campaign = campaigns[_campaignIndex];\r\n    //     require(campaign.complete == false, \"Campaign already complete.\");\r\n    //     //uint amount = campaign.contributions[msg.sender];\r\n    //     require(amount > 0, \"No contributions found.\");\r\n    //     campaign.contributions[msg.sender] = 0;\r\n    //     campaign.raised -= amount;\r\n    //     payable(msg.sender).transfer(amount);\r\n    // }\r\n}\r\n\r\n//  \r\n//truffle migrate --reset \r\n//     \r\n//truffle console\r\n//  \r\n//const instance = await Crowdfunding.deployed()\r\n\r\n//instance.createCampaign(\"A\",\"aa\",\"50\",\"6\",\"aaaa\", {from: accounts[0]})\r\n//instance.createCampaign(\"B\",\"bb\",\"40\",\"5\",\"bbbb\", {from: accounts[1]})\r\n//instance.getCampaigns()\r\n\r\n//instance.contribute(\"1\",{value:\"500000000000000000\", from: accounts[1]})\r\n//instance.getContribute(\"1\")\r\n\r\n\r\n\r\n\r\n\r\n\r\n\r\ncontract TestCrowdfunding {\r\n    Crowdfunding public crowdfunding;\r\n\r\n    constructor() {\r\n        crowdfunding = new Crowdfunding();\r\n        \r\n        // create a new campaign\r\n        crowdfunding.createCampaign(\"Campaign Title\", \"Campaign Description\", 1000, block.timestamp + 7 days, \"Campaign Image\");\r\n    }\r\n}",
  "sourcePath": "C:\\Users\\danie\\OneDrive\\\\tech23\\web3test\\contracts\\crowdfunding.sol",
  "compiler": {
    "name": "solc",
    "version": "0.8.17+commit.8df45f5f.Emscripten.clang"
  },
  "schemaVersion": "3.4.11",
  "updatedAt": "2023-03-17T19:40:44.789Z",
  "devdoc": {
    "kind": "dev",
    "methods": {},
    "version": 1
  },
  "userdoc": {
    "kind": "user",
    "methods": {},
    "version": 1
  }
}